{
  "_format": "hh-sol-artifact-1",
  "contractName": "CarbonFootprintRegistry",
  "sourceName": "contracts/CarbonFootprint.sol",
  "abi": [
    {
      "anonymous": false,
      "inputs": [
        {
          "indexed": true,
          "internalType": "address",
          "name": "companyAddress",
          "type": "address"
        },
        {
          "indexed": false,
          "internalType": "uint256",
          "name": "totalEmission",
          "type": "uint256"
        },
        {
          "indexed": false,
          "internalType": "uint256",
          "name": "timestamp",
          "type": "uint256"
        }
      ],
      "name": "CompanyRegistered",
      "type": "event"
    },
    {
      "inputs": [
        {
          "internalType": "address",
          "name": "",
          "type": "address"
        }
      ],
      "name": "companies",
      "outputs": [
        {
          "internalType": "address payable",
          "name": "walletAddress",
          "type": "address"
        },
        {
          "internalType": "uint256",
          "name": "totalEmission",
          "type": "uint256"
        },
        {
          "internalType": "uint256",
          "name": "timestamp",
          "type": "uint256"
        }
      ],
      "stateMutability": "view",
      "type": "function"
    },
    {
      "inputs": [
        {
          "internalType": "address",
          "name": "_companyAddress",
          "type": "address"
        }
      ],
      "name": "getCompanyData",
      "outputs": [
        {
          "internalType": "address payable",
          "name": "walletAddress",
          "type": "address"
        },
        {
          "internalType": "uint256",
          "name": "totalEmission",
          "type": "uint256"
        },
        {
          "internalType": "uint256",
          "name": "timestamp",
          "type": "uint256"
        }
      ],
      "stateMutability": "view",
      "type": "function"
    },
    {
      "inputs": [
        {
          "internalType": "uint256",
          "name": "_totalEmission",
          "type": "uint256"
        }
      ],
      "name": "registerCompany",
      "outputs": [],
      "stateMutability": "nonpayable",
      "type": "function"
    }
  ],
  "bytecode": "0x608060405234801561001057600080fd5b5061059c806100206000396000f3fe608060405234801561001057600080fd5b50600436106100415760003560e01c8063355e6ce81461004657806340c664e814610078578063d2326c42146100aa575b600080fd5b610060600480360381019061005b9190610383565b6100c6565b60405161006f93929190610459565b60405180910390f35b610092600480360381019061008d9190610383565b610110565b6040516100a193929190610459565b60405180910390f35b6100c460048036038101906100bf91906103ac565b6101e9565b005b60016020528060005260406000206000915090508060000160009054906101000a900473ffffffffffffffffffffffffffffffffffffffff16908060010154908060020154905083565b600080600080600160008673ffffffffffffffffffffffffffffffffffffffff1673ffffffffffffffffffffffffffffffffffffffff1681526020019081526020016000206040518060600160405290816000820160009054906101000a900473ffffffffffffffffffffffffffffffffffffffff1673ffffffffffffffffffffffffffffffffffffffff1673ffffffffffffffffffffffffffffffffffffffff168152602001600182015481526020016002820154815250509050806000015181602001518260400151935093509350509193909250565b6000811161022c576040517f08c379a000000000000000000000000000000000000000000000000000000000815260040161022390610490565b60405180910390fd5b6000429050600033905060405180606001604052808273ffffffffffffffffffffffffffffffffffffffff16815260200184815260200183815250600160008373ffffffffffffffffffffffffffffffffffffffff1673ffffffffffffffffffffffffffffffffffffffff16815260200190815260200160002060008201518160000160006101000a81548173ffffffffffffffffffffffffffffffffffffffff021916908373ffffffffffffffffffffffffffffffffffffffff16021790555060208201518160010155604082015181600201559050508073ffffffffffffffffffffffffffffffffffffffff167f5d24b2d69842e2b5e6939d9a33b5be06b9f743977756a42b94d097c8693046c6848460405161034c9291906104b0565b60405180910390a2505050565b60008135905061036881610538565b92915050565b60008135905061037d8161054f565b92915050565b60006020828403121561039557600080fd5b60006103a384828501610359565b91505092915050565b6000602082840312156103be57600080fd5b60006103cc8482850161036e565b91505092915050565b6103de816104fc565b82525050565b60006103f16028836104d9565b91507f546f74616c20656d697373696f6e206d7573742062652067726561746572207460008301527f68616e207a65726f0000000000000000000000000000000000000000000000006020830152604082019050919050565b6104538161052e565b82525050565b600060608201905061046e60008301866103d5565b61047b602083018561044a565b610488604083018461044a565b949350505050565b600060208201905081810360008301526104a9816103e4565b9050919050565b60006040820190506104c5600083018561044a565b6104d2602083018461044a565b9392505050565b600082825260208201905092915050565b60006104f58261050e565b9050919050565b60006105078261050e565b9050919050565b600073ffffffffffffffffffffffffffffffffffffffff82169050919050565b6000819050919050565b610541816104ea565b811461054c57600080fd5b50565b6105588161052e565b811461056357600080fd5b5056fea26469706673582212209cc9adc283821287923eb2ea70055b67d8a6dfa2547bb2c959d6fb215b3bb24464736f6c63430008000033",
  "linkReferences": {},
  "deployedLinkReferences": {}
}